:020000040800F2
:10000000F8DF0920A9060008F3010508E101050849
:10001000F5010508010205080D020508E1040008C4
:1000200000000000000000000000000019020508A8
:100030001B02050800000000D904050895020020F5
:10004000E1040008E104000829020508E1040008B1
:1000500023020508E1040008D54F0508E104000863
:10006000E1040008E1040008E1040008ED4305088C
:10007000F3430508F9430508FF430508054405084F
:100080000B44050811440508174405081D440508DC
:1000900023440508294405082F440508354405086C
:1000A0003B4405084144050847440508F92905086B
:1000B000092A0508192A0508292A0508392A0508E0
:1000C000492A0508592A0508692A0508E104000893
:1000D000E1040008E1040008E1040008E10400086C
:1000E000E1040008E1040008E1040008E10400085C
:1000F000390205083F020508450205084B020508BC
:1001000051020508E104000869020508E10400083D
:10011000E1040008E1040008E1040008E10400082B
:10012000912C0508E10400088F03002095030020AE
:100130009B0300207103002077030020790205084B
:10014000E1040008E10400086F020508E10400086A
:1001500075020508E1040008E1040008E104000854
:10016000E1040008E1040008E1040008E1040008DB
:10017000E1040008E1040008E1040008E1040008CB
:10018000E1040008E10400089D2C0508E1040008D2
:10019000E1040008A1030020A7030020E1040008F7
:1001A000E1040008E1040008792A0508892A050805
:1001B000992A0508A92A0508B92A0508C92A05089F
:1001C000D92A0508E92A05087D03002083030020B9
:1001D00089030020E1040008E1040008E1040008AC
:1001E000E1040008E1040008E10400081D0205081C
:1001F000E1040008E1040008E1040008E10400084B
:10020000E1040008E1040008E1040008E10400083A
:10021000E1040008E1040008E1040008E10400082A
:10022000E1040008E1040008E1040008E10400081A
:10023000E1040008E1040008E1040008E10400080A
:10024000E1040008E1040008E1040008002302487A
:100250008364403000F03CB9540500200122054B76
:1002600043F82010044B1A604FF08052034B5A6041
:10027000704700BF607800206878002000ED00E043
:1002800010F4FE7F02BF0622014BC3F8002E704718
:1002900000E100E00D4B10B51C6801341C604FF00C
:1002A000E0231B690A4B04F0030253F822300BB120
:1002B00020469847074B1B68A34205D1BDE8104074
:1002C00000200549FFF7CABF10BD00BF24770020FA
:1002D0006C7800202077002015710408224B10B59F
:1002E00003EB8003D3F80442002C3BD06268D3694F
:1002F0009BB2E3839B0618D5618A00292DD0A38A7F
:100300009BB20133B3FBF1F001FB1033E18A9BB2E6
:10031000994222D0516AA2890A40A17A91B1134927
:10032000096891420ED1FFF791FFE38B626803F0F9
:1003300018011162A28B134214D0206ABDE810404C
:1003400000F0C2B8E17AA0690129A18A89B20CBF84
:1003500020F811204254A382E7E7136823F020031A
:100360001360E2E710BD00BF5405002028050020FF
:100370000420FFF7B3BF0520FFF7B0BF0720FFF74A
:10038000ADBF0820FFF7AABF0920FFF7A7BF0120D4
:10039000FFF7A4BF0220FFF7A1BF0320FFF79EBF16
:1003A0000620FFF79BBF0A20FFF798BF70B50546F0
:1003B00000F080F80646114C236A13F00B0F0AD1A7
:1003C000236A13F47E0311D001200D494A681A43B1
:1003D0004A60236370BD6A1CEED000F06BF8801B8E
:1003E000A84201D8002DE7D10320F3E7236A0020BB
:1003F000DB0344BF4FF480332363EBE7002002406C
:10040000340500202DE9F041274E05463378884613
:10041000012B47D00123337000234FF47A707360AF
:10042000FFF7C4FF0446B8B948F208022B6823F06E
:1004300000419142B36014D1686800F04DF84FF468
:100440007A70FFF7B3FF044618492A688B6A22F0D6
:10045000004223EA02038B62002333702046BDE88A
:10046000F081134A934205D1104A136C43F00803FC
:100470001364E4E74FF0FF33C8F80030AF68D5E904
:1004800002231344BB42DFD93846696800F018F8EC
:100490004FF47A70FFF78AFF10B1C8F80070D2E706
:1004A0000137ECE70224D9E73405002000200240A0
:1004B00008000080014B1868704700BF24770020B7
:1004C0005FF800F091FA04085FF800F06D6B040823
:1004D0005FF800F079E800085FF800F04DFA0408D2
:1004E000FEE7000001221D4910B5D1F888301C48F4
:1004F00043F47003C1F888301A4B1A600022DA61A5
:100500001A621C682040186017489A62DA621A63FF
:1005100058639A63D8631A6458649A64186820F41C
:10052000802018601A654FF000638B600F4B9A694A
:1005300002F04042B2F1404F0FD1DA69D20741BF19
:100540000B4ADA6002F14432DA60DA6942F0020200
:10055000DA61DA6942F00102DA6110BD00ED00E013
:10056000E3EAE2EA000C02448002010100200240BA
:100570003B2A1908424AD36903F01803102B7DD097
:100580000BD873B13F4B3E4A3F49126A02F00F024B
:100590008A5CD3403D4A13607047182B07D03C4B10
:1005A000F1E712683A4BC2F3C102D340EBE7916A1C
:1005B000936A906AC3F3052307EE903A936BC0F3F6
:1005C0000010C3F3CC03434307EE103A01F00301DC
:1005D0000229B8EEC77A31D0032947D001294AD180
:1005E00011682B4BC1F3C101CB4006EE903AF8EEF7
:1005F000E77AF8EEE66A536B86EEA76AC3F3080360
:1006000007EE903ADFED236AF8EEE77AE7EE267A16
:10061000B7EE007A77EE877A67EE867A184B5B6BD7
:10062000C3F34623013307EE103AF8EEC76A87EEAC
:10063000A67AFCEEC77A17EE903AA4E7F8EEE77ACE
:100640009FED156A536BC6EE276AC3F3080307EEE6
:10065000903A9FED106AF8EEE77AE7EE067AB7EE89
:10066000007A77EE877A67EEA67AD7E7F8EEE77A30
:100670009FED0A6AE6E7DFED0A7ACFE7094B82E7EA
:10068000000C024400093D0060640508E0040020FD
:100690000090D003000000390024744A20BCBE4BF7
:1006A0000000000040787D010446DFF82CD00B49A3
:1006B0000B4A0C4B03E051F8040B42F8040B9A422E
:1006C000F9D300200849094A01E041F8040B91429E
:1006D000FBD320464FF082BBF8DF0920DC5507082A
:1006E000E00400205405002054050020487C002030
:1006F00040F8044B40F8045B40F8046B40F8047B7E
:1007000040F8048B40F8049B40F804AB40F804BB6D
:1007100040F804CB40F804DB68467047024B5A6946
:10072000026058610020704754050020024B5A694E
:1007300012685A61704700BF54050020024B9A6945
:10074000C0E900219861704754050020044A93696C
:100750001968916110B118465A681047704700BF78
:100760005405002038B50446044DAB690BB1A342D3
:1007700000D338BD0120FFF7E9FFF6E7540500205C
:10078000C460056146618761C0F81C80C0F8209094
:10079000C0F824A0C0F828B0C0F82CD080ED0C8B95
:1007A00080ED0E9B80ED10ABC0F808E0FFF7B6BF00
:1007B000124D08B56C690CB94FF0FCFA6060204628
:1007C000FFF7D0FF23686B612046C468056946695E
:1007D0008769D0F81C80D0F82090D0F824A0D0F8F9
:1007E00028B0D0F82CD090ED0C8B90ED0E9B90EDB6
:1007F00010ABD0F808E00120704700BF540500207E
:1008000010B50021044600F025FB18B914B12046AC
:100810000DF0FCFD10BD002100F01CBB10B5012146
:10082000044600F017FB18B914B120460DF0EEFD98
:1008300010BDFFF7E5BF10B501220C4600F02EFCFD
:1008400018B914B120460DF0E1FD10BD00F026BC32
:1008500000F0E6BB484308B50830FFF7DCFF40B1C5
:10086000044A936A03B118600021C0E90013906242
:10087000083008BD54050020034678B153F8042C15
:10088000083812B153F8081C116053F8083C13B132
:100890005A6000F0C5BB024B9A62FAE7704700BF8E
:1008A000540500202DE9F0434FF0030C0025864647
:1008B000294C0021D4F8340301310EEB01039A08CE
:1008C000825C03F003035B0042FA03F303F00303CB
:1008D000022BF1D0D4F84003090100EB0E108E0872
:1008E00089B300EB860603681A0729D1D4F84013B0
:1008F0005A1AC2F3011E99424FEA92174FEA4E0E5E
:100900004FEA12121CD8D4F84413994218D9D4F8DB
:1009100034830CFA0EF918F8071041FA0EF303F0BD
:100920000303012B41EA09010AD108F807103F2D02
:1009300004EB45019ABFA1F854230135C4F85033A4
:100940000430B042CFD12DB1013D04EB4503B3F8E3
:1009500054E3AEE7BDE8F08354050020012230B532
:100960001B4CD4E9CF53C01AC1096B5CC0F3021E03
:1009700002FA0EF223EA02036B540325D4F848234B
:1009800083094FEA101CB2EB901FD4F8340388BFE0
:10099000C4F84833C15C4FEA9C0E0CEA05035B00C7
:1009A00005FA03F321EA030100F80E100CF1010C23
:1009B000D4F834034FEA9C0E10F80E100CF0030329
:1009C0005A0041FA02F202F00302022AE7D030BDD7
:1009D000540500200A4670B5054622F00F02131A8E
:1009E000134E013BDB00A6FB0363124C5B0AC4F809
:1009F0004423A2EB8312C4F840239A00C4F838338E
:100A0000073201331D4403EBD2020021C4F8340342
:100A1000C4F83C5345F0E8FC002301214FF0FF32BD
:100A2000C4E9D233C4E9F6322381A4F8D41370BDEB
:100A3000F32C23FA54050020024A13890233138150
:100A4000704700BF54050020024A1389023B1381FE
:100A5000704700BF54050020024B1889003818BFAA
:100A600001207047540500200022F8B51B4D2B894A
:100A700005F1080443F001032B8105F52276C5F842
:100A80005023C5F8D82354F8043F1A071AD1D5F8D3
:100A90004023981AC0F3011193424FEA901C4FEA89
:100AA00041014FEA10100DD3D5F84423934209D2E7
:100AB000D5F8347317F80C2042FA01F303F003035E
:100AC000012B02D0B442DED1F8BD03238B401A4380
:100AD00007F80C20FFF7E6FEF4E700BF54050020FE
:100AE00081B3F8B50F460024174E051F55F8043F93
:100AF0001A071AD1D6F84023981AC0F3011C9A425B
:100B00004FEA90114FEA4C0C4FEA10100DD8D6F86E
:100B100044239A4209D9D6F834E31EF8012042FA58
:100B20000CF303F00303012B03D00134A742DDD102
:100B3000F8BD032303FA0CF31A430EF80120FFF764
:100B4000B1FEF2E7704700BF540500202DE9F043E5
:100B5000614E83B0D6F85033D6F83413C3B10025B4
:100B6000D6F838339800C6F8505388B10024A3084B
:100B7000CB5C04F003025200134103F00303032B88
:100B80001FD001348442F2D3D6F85033002BEAD17F
:100B90004FF000090127D6F84C334FEAD308D6F8B6
:100BA0003C334FEAC90413F809503DB304F0030382
:100BB000E8074FEA94024FEA430314D46D08013466
:100BC000F4E72046FFF76EFED6F838330134B4EB75
:100BD000830FD6F834134FEA8300C8D3D6F85033C6
:100BE000002BC0D1D4E78A5C42FA03F303F003037D
:100BF000012B09D06D0804F10104D7D1C84509F1D2
:100C0000010325D09946CAE7D6F840032301C3580B
:100C100000EB041073B16A4640F24D410CF086FDC2
:100C2000009B3BB10DF036FEDDE900010DF00AFE40
:100C30000DF046FED6F83C03E108435C04F00702E1
:100C400007FA02F223EA02034354D6F83413D1E739
:100C50004FF0000C03250227E64662460FE001280C
:100C600006D14FF0010E05FA03F324EA03030B70DB
:100C7000D6F84C3301329A421DD8D6F83413930873
:100C8000CC5C02F003035B0044FA03F000F00300C5
:100C9000022801EB92011AD00328E0D107FA03F3EE
:100CA00024EA03040C70D6F84C33944601329A427D
:100CB0004FF0000EE1D900223389C6F84CC323F06F
:100CC00001033381C6F8482303B0BDE8F083BEF1C9
:100CD000000FE8D0C5E700BF540500200021044BF9
:100CE0001A89C3F8501342F001021A81FFF72EBF90
:100CF000540500200023564A2DE9F043D2E9D041A3
:100D0000091B9946D2E9CD649E464FEA840C0160E6
:100D10001C4619461A461F461D46C0E90133C0E964
:100D20000333C0E9053316F809304FEA4E0E43FA93
:100D30000EF303F00303012B02F1010255D0022B45
:100D400024D033BB01379445876004F101046DD092
:100D50004FEA920916F8098002F0030E4FEA4E019D
:100D600048FA01F818F002013BD108F00308944555
:100D70002DD0B8F1010F04D1C3689C4288BFC46074
:100D800000244FEA920902F0030ECCE701354560DA
:100D90000131944541D04FEA920916F8093002F02A
:100DA000030E4FEA4E0843FA08F303F003089B07CB
:100DB00018D401292CD0022903D10221436901331F
:100DC000436183698B42D2D294458161D1D1C3689A
:100DD0009C4200D9C4602D013F01C0E90157BDE824
:100DE000F083194694459ED1F5E701359445456059
:100DF00025D04FEA920916F8098002F0030E4FEA57
:100E00004E0148FA01F818F0020FEAD108F0030881
:100E10000369012101330361D3E701299846F7D023
:100E20000229CAD083699942CED8D0E7C368A342C9
:100E3000D0D32D013F01C0E90157BDE8F08302691D
:100E4000013202618269002AC1D18361BFE700BF1C
:100E5000540500202DE9F84300F10F0636093FD074
:100E60006E4C2389E3BBB4F8D4230D46E2BBD4F81F
:100E70004803D4F83873B84232D24FF0010ED4F898
:100E800034C30138013F002160446744CCF10108BC
:100E900018E04A1C964255D913F00C0F42D18A1C17
:100EA000964240F2AA8013F0300F41D101329642AF
:100EB00040F2A8803F2B2ED8511C8E4240F2A780D2
:100EC000B8420AD008EB000910F8013F9A07E0D0B9
:100ED00013F00C0F21D10122E2E7BEF1000F0FD079
:100EE00000231846BDE8F883D4E9F612914226D2D1
:100EF000D4F84803D4F83873874288BF9E46BED8DA
:100F000052F065FED4F84803D4F838734FF0010E60
:100F1000B842B4D3E4E70021D2E713F0300F0CD18C
:100F20000122C4E703F03002B2FA82F25209C1E7AB
:100F30003F2B8CBF00210121C2E70022BAE752F00B
:100F400046FE94E74FEA8909A9EB0201012A01F163
:100F5000010704D109F101039B08C4F84833D4F810
:100F60004C3307F0030E4B4538BF4B46C4F84C33A7
:100F70000123B8080EFA03FE03FA0EF31CF800E092
:100F8000023143EA0E0389450CF8003012D34FF0CA
:100F9000020ED4F834C3880801F003031CF8008063
:100FA0005B000EFA03F3013143EA080389450CF8AC
:100FB0000030EED2D4F8D833D4F840833344C4F8A8
:100FC000D83308EB071318461201002145F00CFA3C
:100FD000EA0703464FEA071683D50022D4F83C03FC
:100FE00048F806200122F908445C07F00707BA40D8
:100FF000224342541846BDE8F8834FEA890909F1B3
:101000000109A1E74FEA890909F102099CE74FEAC2
:1010100089090A4609F1030996E700BF5405002033
:10102000034B1A89012A02D808B1FFF797BC704711
:1010300054050020034610F00F001CD1164AD2F8C8
:101040004013994216D810B4D2F844439C420ED9AA
:101050005B1AD2F834439A09C3F30111A25C490028
:101060000A4102F00302012A4FEA131305D05DF88A
:10107000044B704770470020704701301A189108E0
:10108000615C02F00302520041FA02F202F0030234
:10109000022AF2D00001EAE7540500202DE9F84FBA
:1010A00006460F46002800F0CB80734D2C8900299E
:1010B00000F09280002C40F09380D5F84003D5F8E2
:1010C00038C3301A030903F1010E0F31BEEB8C0F48
:1010D0004FEA11114FEA8C0A80F0B880A4464FF015
:1010E0000108D5F834934FEA9E0419F804400EF035
:1010F000030B4FEA4B0B44FA0BF404F00304022CED
:101100002BD02CB90CF1010C0CEB08048C4226D32B
:1011100041455DD066D3C4448C4525D2002A5FD0BA
:10112000D5F83C13C209895C03F00703194138461E
:1011300001F00101FFF78EFE0446002850D0314631
:101140004FEA081245F00CF92B89012B02D83046E2
:10115000FFF704FC2046BDE8F88F08F101080EF106
:10116000010EF245BFD1D3E75C1843449C4220D91D
:101170004FF0020C03F0030223FA0CF019F8007090
:10118000520001330CFA02F23A439C4209F8002063
:101190000FD9D5F83473980803F0030217F800E06C
:1011A00052000CFA02F2013342EA0E029C423A5417
:1011B000EFD1D5F84C33A1EB08029C4238BF1C4656
:1011C0000021120106EB0810C5F84C4345F00CF95C
:1011D00034462046BDE8F88F012C01D8FFF7BEFB4E
:1011E0000024B7E74FF0030C5C18A00804EA0C07D2
:1011F00019F800E07F00A8EB01010CFA07F72EEACE
:101200000707012904F1010409F8007010D003EB6D
:10121000080ED5F83433A70804F00302D95D520054
:101220000CFA02F2013421EA02027445DA55F0D1D7
:10123000D5F848338342CBD93446C5F84803C8E7CC
:1012400001463846BDE8F84FFFF704BE0129BFD07C
:1012500029B14FF00108002A7FF462AFC0E70322F2
:10126000D5F8341303F0030380095B009A400B5C4C
:1012700023EA02030B54DBE75405002010B50446B3
:101280008AB003A8FFF736FD059A049B009220461A
:10129000039A074900F09CFF099A2046069C0549DD
:1012A000CDE90024089B079A00F092FF0AB010BD18
:1012B00070640508946405082DE9F843DFF8589137
:1012C0004749D9F84023074600F082FFD9F8381380
:1012D00089006DD00025DFF8448115F03F0633D03A
:1012E00005F003067600D9F83423AB08D35C33410C
:1012F00003F00303022B63D0032B5FD0012B4AD1F1
:10130000D9F840232B01D25842455BD0354B9A4245
:101310005AD0354B9A425BD0344B9A4256D0344B1C
:101320009A4253D0334B9A4254D0334B9A4251D0C5
:10133000324B9A4252D0324B9A424DD0314B9A4264
:1013400014BF68224D2227E0A9421ED92C46D9F8A5
:10135000340302E001348C4208D0A208825C04F01D
:1013600003035B0042FA03F39B07F3D0621B7F2A5F
:101370000BD938462449920900F02AFFD9F83833AE
:1013800024F03F05B5EB830F12D238461F492A01DE
:1013900000F01EFFA7E72E221D49384600F018FF77
:1013A000D9F838330135B5EB830F4FEA830194D375
:1013B0003846BDE8F843174900F053BB6D22EBE710
:1013C0003D22E9E75422E7E74C22E5E75322E3E731
:1013D0004422E1E74122DFE74222DDE74622DBE764
:1013E000DC64050828220608F8190608282B0608D8
:1013F000F82A060820170608A8160608A01E0608E0
:101400003C1F0608BC230608F86405081465050897
:101410001C650508D864050854050020702C0608D2
:101420000346064A506A1A684168C1F31E018A429F
:1014300002D3521A1A6070470068F5E7540500207D
:1014400041F205530144884204D398B2012838BFC1
:101450000120704710F8012B03EB43135340F2E7D0
:10146000034B044A5A620022C3F88C22704700BF23
:10147000540500206C5B06082DE9F04781460F46B5
:10148000002943D0FFF7DCFF8246214B5C6A0CB990
:10149000204637E094F90730E668002B4FF000054E
:1014A00006F1FF3616DB013604F11808B54215D3F4
:1014B0002468ECE706EB05084FEA580808F1060334
:1014C0003A46484654F8231044F0F2FF0028CCBFB7
:1014D00045464646731B012BECD8E4E7236933F8F5
:1014E00015309A4510D163695B5D9F420CD13A4635
:1014F000494658F8250044F0A3FF28B96068C0F3B6
:101500001E002844BDE8F0870135CFE70120F9E748
:10151000540500202DE9F84380460F46FFF7ACFF45
:10152000002840F09280FF2F03D9494949480CF028
:1015300061F9494D7E1CD5F88C32ABB1D5E9A412C6
:1015400032448A422CD9024631441846FFF77EF9CC
:10155000D5F88C320446E0B90246D5F89412184604
:10156000FFF774F9C5F88C42802E344638BF8024CA
:101570002046FFF750F90346C5F88C02B8BB304649
:10158000FFF749F90346C5F88C0278BB30460CF0EA
:101590003DFFD5F890223244C5F89022002BE3D0CD
:1015A00041464FF00008D5F894229C183244C5F803
:1015B000942220463A4644F0D3FE3946204604F8A9
:1015C0000780FFF73DFF8146686AD0E90262B242B8
:1015D0002BD376000A2E38BF0A26C6EBC600183079
:1015E000FFF719F948B9C5F88C02CFE73446002255
:1015F000C5F89042C5F89422D2E700F1180202EB38
:101600008602696A026102EB460242614A68016031
:10161000C968C2F31E020A444168C0F80C8062F334
:101620001E014246C0E9011668620169436921F85A
:1016300012909F546B6A911D43F821405868D968F5
:10164000C0F31E000131D9601044BDE8F88300BF2B
:1016500063650508941B06085405002010B5044670
:1016600044F000FF01462046BDE81040FFF752BF9E
:1016700007B5019001A8FFF7D3FE019A036933F87B
:10168000120003B05DF804FB07B5019001A8FFF755
:10169000C7FE019B4269D05C03B05DF804FB07B54F
:1016A000019001A8FFF7BCFE019B063350F8230010
:1016B00003B05DF804FB13B5019001A80C46FFF7D9
:1016C000AFFE019B4269D25C063350F823002260D2
:1016D00002B010BD2DE9F8431D4600230746884699
:1016E000164603600B6013602B60154BDFF85490B7
:1016F0005C6A64B92B68326813442B60BDE8F883D8
:10170000336812F8010B0133034433600DE04C459C
:10171000F0D03B6801333B60E268D8F800301344F6
:10172000C8F800306269E368D1188A42E8D32046DD
:10173000FFF780FC2B68246803442B60D9E700BFC7
:10174000540500206C5B0608F8B50B4B0B4F5C6A28
:101750000CB1BC4200D1F8BDE36804F1180505EBFB
:101760008306B54201D32468F2E755F8042B0449F7
:10177000044800F02DFDF4E7540500206C5B0608DA
:101780006B650508080A060830B50023202511F806
:10179000012F0AB9027030BD120600F1010420D5F4
:1017A00013B12023037020460B78124A03F07F0305
:1017B0006BB9013A12F8013F044613F0800F00F1B3
:1017C00001000BD003F07F0323700123DFE712F940
:1017D000014B002CFBDA013BDBB2E9E700F8013CEE
:1017E000E8E7012B04BF057020460B7800F8013BA9
:1017F0000223CCE77265050838B5436805461944ED
:101800000368994210D9037B1BB1002107480BF0F4
:10181000F1FF01F1100424F0070408342146806828
:10182000FFF709F82C60A86038BD00BF941B0608BC
:1018300070B5044615460E461146FFF7DDFFD4E9A4
:1018400001302A461844314644F0BAFD63682B44FF
:10185000636070BD012938B538BF012104460025F9
:10186000084621606560FEF7CBFF2573A06038BD98
:1018700038B505460C460131FFF7ECFF6C6038BD0A
:101880000023C0E9013201230160037370470000A7
:1018900038B514460546FFF7DDFF024B256063604F
:1018A00038BD00BF31180008037B10B5044613B9DA
:1018B0008068FEF7CDFF0023A36010BD38B5054654
:1018C0001020FEF79DFF04462946FFF7C3FF204680
:1018D00038BD10B5044648B1037B13B98068FEF7E4
:1018E000B7FF2046BDE81040FEF7B2BF10BD0000B4
:1018F00038B5037B04460D461BB1002106480BF0AA
:1019000079FF016880682944FEF795FF2368A0608D
:101910001D442560184438BD941B060838B504469C
:101920000D46FFF769FFD4E901301D446560184496
:1019300038BDD0E900239A4210B5044602D10121F6
:10194000FFF7D6FFD4E901320021D154A06810BDC1
:1019500010B50C460121FFF7E1FF047010BD7F298F
:10196000F8B50C46CEB204D80121FFF7D7FF0670B8
:10197000F8BD06F03F06B1F5006FC1F3871546F0DC
:10198000800607D20221FFF7C9FF65F03F05057009
:101990004670EDE705F03F05B1F5803FC1F307372D
:1019A00045F0800508D20321FFF7B8FF67F01F0755
:1019B000077045708670DBE70421FFF7AFFFA40CCA
:1019C00007F03F0764F00F0467F07F07047047706B
:1019D0008570C670CCE738B5054608460C4644F01D
:1019E00041FD214602462846BDE83840FFF720BFAA
:1019F000F8B547680446B94228BF394616460D4631
:101A00001146FFF7F9FEA368A81959197A1B184463
:101A100044F0D6FC6368A068334463602844F8BD92
:101A200043688B4234BF0021591A4160704738B572
:101A300004461546626808468A4203D929448A4208
:101A400001D8606038BDA368521A1844194444F0A4
:101A5000B7FC63685B1B6360F4E70846114645F01A
:101A600003BC70B5054608460E4644F0FBFC044630
:101A700020B1024631466B6828689847204670BD01
:101A80002DE9F74F91468A469DF830100D9A11F0D6
:101A9000DF0F0746A2EB090552D0302954D1C3F31A
:101AA0004721002954D05F290CBF0526042692FB4C
:101AB000F6F106FB11210CBF2A482B4809B9013564
:101AC000013292FBF6F406FB1422711E8A1A00EB17
:101AD000020813F020023ED005EBD573A5EB63049A
:101AE0005D10002D3BDDAB465E453246A8BF5A4631
:101AF00041467B68386801929847019AABEB020B2C
:101B0000BBF1000FF0DCB9F1000F05D04A46514699
:101B10007B68386898474D44002C0DDD2544A6426B
:101B2000B146A8BFA14641464A467B683868A4EB47
:101B300009049847002CF2DC284603B0BDE8F08F7A
:101B4000DFF828801026C4E701260DF13008C0E731
:101B5000DFF81C80F6E713F00104C2D02C46002504
:101B6000D1E700BF1C0A0608210A0608270A060852
:101B7000100A06082DE9F04F924693B0CA07804636
:101B8000DDE91E760D461C9C9DF8749005930BD4E0
:101B90008B0703D109687B4B994205D028460DF08D
:101BA000CFFC450045F0010514F0210306D1B9F141
:101BB000300F03D1B742B8BF37461E46284610F053
:101BC000B5FE00280DF1280B1CDBA00716D52B2332
:101BD0008DF828300DF1290322079DF814101FD528
:101BE000BAF1020F10D14FF0300C184600F802CBBA
:101BF00001F1010C83F801C0034611E0610701D532
:101C00002023E5E75B46E7E7BAF1080F5AD1302019
:101C10001870200645BF01F10E00587001330233E1
:101C200000200EAA0B9210221870012EA3EB0B03BA
:101C30000693C4F34723C8BF1443CDE90C2014F026
:101C40001002CDE902138DF82700059245D0CDE9A9
:101C500000A02B460DAA0CA90BA810F035FD0378A7
:101C600082462D2B06D18DF827300D9B00F1010AFD
:101C7000013B0D93012E7ADD0D9D059BB542B8BF4A
:101C800035462BB19DF8273003B10135069B1D4425
:101C900024F00103AF42079371DD14F00109A7EBB3
:101CA00005056DD12023019500934A464B464046D9
:101CB0003549FFF7E5FE4D460446059B4FF03009D8
:101CC000C3B936E0BAF1100FAAD14FF0300C184664
:101CD00000F802CB01F1170C8CE70AABCDE900A3A9
:101CE0000DAA2B460CA90BA810F0EEFC8246C1E70A
:101CF00000252C469DF8273053B100230122404691
:101D0000CDE900320DF12701FFF7BAFE013F04448F
:101D1000069B5BB1002301225946CDE900324046C3
:101D2000069AFFF7ADFE069B0444FF1A012ED8BFAA
:101D30003E4651464046CDE90096079B0D9AFFF777
:101D40009FFE04444DB120230093002340461A46D1
:101D50000D490195FFF794FE04440B980EAB984291
:101D600001D0FEF775FD204613B0BDE8F08F059B4E
:101D70000794002BBCD11D461C463E46D9E70025E2
:101D800000249AE70021060889C205082DE9F043DE
:101D90000746900798464EBF2B23C2F380035B0192
:101DA0008DB058BFDBB2164600930A46159B212121
:101DB00003A8DDF850900AF063FCF20504461FD535
:101DC0002E2103A844F0B0FBD0B9652103A844F04C
:101DD000ABFBA8B96E2103A844F0A6FB80B92E2165
:101DE00004F130026A4402F8241C3022631C3033B0
:101DF0006B44023403F8242CA3186B4403F8240C1E
:101E000073060ED504F13002631C0DEB020425228B
:101E1000002104F8242C1C4603F130026A4402F825
:101E2000241C16F010051DD09DF80C302F2B4FF000
:101E3000000319D8012203A93846CDE90032FFF783
:101E40001FFE054609F1FF39013C0DF10D01334636
:101E500022463846CDE90089FFF712FE28440DB02E
:101E6000BDE8F08303A9F2E71D4603A9EFE70000F0
:101E70002DE9F04F814614464FF000088BB00B4619
:101E80001D4613F8012B0AB1252AF9D1A94208D21F
:101E90006E1A3246D9F80430D9F80000984729461E
:101EA000B0440B78002B00F08B81202300274A1CC4
:101EB0000393134613F8016B3EB12D2E25D01ED887
:101EC000202E29D02B2E24D00026154612F8013BB7
:101ED000A3F13001092922D92E2B4CD16B782A2B62
:101EE00023D00023154612F8011BA1F13000092868
:101EF0001ED80A2000FB031BABF13003F2E7302EA3
:101F0000E2D147F01007039601E047F001071A46B7
:101F1000CFE747F00207FAE747F00407F7E70A219F
:101F200001FB0633A3F13006CFE754F8043B02353A
:101F300023EAE37B2B786C2B08BF013595F800A0D2
:101F4000BAF1000F00F03C81BAF1780F09D8BAF16C
:101F5000570F13D8BAF1470F5AD8BAF1440F00F20D
:101F60001D8101222946D9F80430D9F8000098478C
:101F700008F1010885E04FF0FF3BDBE7AAF15803C9
:101F8000202BEED801A252F823F000BF1720000842
:101F9000631F0008631F0008631F0008631F000819
:101FA000631F0008631F0008631F0008631F000809
:101FB000631F00086920000893200008172000080C
:101FC0009D2100089D2100089D210008631F000835
:101FD000631F0008631F0008631F0008631F0008D9
:101FE000631F0008631F0008631F00081720000814
:101FF000A9200008631F0008D1200008631F000803
:1020000017200008631F0008631F0008172000083E
:10201000BAF1500FA5D154F8040B0AF0DF03502B8E
:10202000014667D1BAF1640F6AD1002880F29D8021
:102030002D230A228DF81730512341420DF1280A31
:102040000A3B0DF1180BB1FBF2FC02FB1C10092836
:102050008CBFC01830300AF8010DDA458E46614653
:102060005DD07245EFD95AE054F8043B019653B164
:10207000039B042200933B4653494846FFF700FD6B
:102080008044691CFBE6039B052200934F493B46B5
:10209000F3E754F8043B01228DF81830039B0196B6
:1020A000009306A93B46E8E706A954F8040BFFF79E
:1020B00002FBBBF1FF3F014604D0069B9B4538BFA6
:1020C000CDF818B0039B069A009301963B46D4E7DF
:1020D00054F804AB504644F0C5F9BBF1FF3F02464B
:1020E00002D0584528BF5A46039B5146009301969B
:1020F0003B46C2E7BAF1640F97D0BAF1750F2ED004
:1021000000228DF8172010222AF00F030F3BDBB2BC
:10211000002893D130230DF1270A8DF8273017F0CE
:10212000100B9DF817302DD0002B35D00122039BCA
:102130004846009301923B460DF11701FFF7A0FCC2
:102140008346013E039B0AAA009351463B464846FC
:102150000196A2EB0A02FFF793FC584490E7002394
:102160000A228DF817306123D2E7BB0705D52B2350
:102170008DF817300A225123CAE7C7F380035B01A9
:10218000DBB2F5E7002BDDD006AA9245DAD90AF8D2
:10219000013C0AF1FF3AD5E79B46D3E7073424F028
:1021A0000704F4E8020153F0DDFE3A4600EE100A9F
:1021B00051464846CDE9006B039BFFF7E7FD5FE71B
:1021C00040460BB0BDE8F08F7D9605088296050865
:1021D0000EB403B503AA52F8041B0192FFF748FEA0
:1021E00002B05DF804EB03B07047034693F900209A
:1021F0000078002A0ADA402200F07F00104206D15F
:1022000013F8012F02F0C001802904D0704720EAA2
:1022100002005208F2E702F03F0242EA8010EFE7C4
:10222000431C18460278013302F0C002802AF8D01D
:10223000704703460020994200D8704711F8012DDD
:1022400002F0C002802A18BF0130F4E703460144BF
:10225000002099421A4600D870471278013302F0E4
:10226000C002802A18BF0130F3E700007F289DBF1D
:10227000024B185CC0F3400000207047370A060884
:102280007F289DBF024B185CC0F3C0000020704740
:10229000370A06087F289DBF024B185CC0F38000F8
:1022A00000207047370A06087F289DBF024B185C44
:1022B000C0F3801000207047370A06087F2809D82D
:1022C000064B1B5C13F00C0F06D1A0F15F035842C4
:1022D000584170470020704701207047370A0608B0
:1022E0007F289DBF024B185CC0F300100020704790
:1022F000370A06087F289DBF024B185CC0F34010C8
:1023000000207047370A060808B50246FFF7E8FFC5
:1023100002EB401008BD08B50246FFF7EBFF404254
:1023200020F01F00104408BD3038092884BF20F079
:1023300020000738704730B50024E5250A448A425A
:1023400003D8B4FA84F0400930BD11F8013B34B130
:1023500003F0C003802B11D1013CE4B2EFE758B980
:10236000BF2B09D9F72BEFD8DB0803F0060345FA9A
:1023700003F303F00304E2E71B06E0D50020E3E7E4
:10238000023981420B4603D31A880239002AF8D059
:102390000233181A40107047B2EB131F70B5044691
:1023A0004FEA131019D901EB4001101A02462646D4
:1023B00003F00F03012A0CBF0D880D68013A25FABE
:1023C00003F526F8025B01F10201F3D104EB4004AE
:1023D00034F8023C03B9013870BD0020FCE7F0B5C9
:1023E00000252E46059C121BAC420FD1174601EB6F
:1023F000440300EB4404411A9FB904EB420316B1B5
:1024000024F812600233181A4010F0BD31F815702C
:1024100033F815C067443E4420F81560360C01358A
:10242000E2E71D88013F35445D522E0C0233E3E79D
:10243000F0B400263446049F0D46D11BB7420BD1A1
:102440000A4605EB470300EB4707451B7AB907EB44
:102450004101F0BCFFF794BF35F816C033F81620E1
:102460006444A41A20F8164024140136E6E71E88B6
:10247000013A34445C5324140233E7E72DE9F04376
:102480008446DDE9087615464FF6FF78079CDDF8AF
:1024900028E00239A4EB020955B900EB42011FB153
:1024A0000123023120F81230BDE8F043FFF768BF86
:1024B00031F8024F013D4444264405EB0904A5428E
:1024C00032BF4FF6FF7433F8024B4444744486EA3B
:1024D000040E17FA8EF72CF8027B4FEA144E360CD6
:1024E0003F0CD9E7022938BF022138B5044680687D
:1024F0000D4618B12368B1EB930F07D96900FEF7B9
:102500009AF92368A06065F39F03236038BD38B54E
:1025100004460C20FEF774F9054623682278C3F3BD
:102520009D0002F0010223F0030313432B60636854
:1025300040006B60FEF764F9A8602268A168C2F3EE
:102540009D02520043F00CFF284638BD994210B559
:1025500011D313D800EB410002EB410209B9084640
:1025600010BD30F8023D32F8024D1B1B002B02DB80
:1025700004D10139F2E74FF0FF30F1E70120EFE736
:1025800010B5044638B18068FEF762F92046BDE810
:102590001040FEF75DB910BD70B50C46054602212E
:1025A000FFF7A0FF002CB4BF012200222B78A8BFA8
:1025B000214662F300032B704FF00103AA68B8BFF5
:1025C000614288B2090C14461E4622F8020B03F140
:1025D0000103F6D16E60208070BD0023C0E9003396
:1025E0008360704728B103789B0702D48068FEF7A8
:1025F0002FB9704738B504460D464968FFF772FF9A
:102600002A782378A06862F3000323706A68A968B7
:1026100062605200BDE8384043F0A2BE0A4629B9C4
:102620000178426062F3000101707047FFF7B4BFA8
:1026300008B5FFF7D2FFBDE80840FFF7EFBF9200F3
:1026400042F0020210B4026000225DF8044BC0E9BF
:1026500001211946FFF7E2BFF8B514461D469DF863
:10266000187004210646FFF73DFF22462B4627B18E
:10267000002D0CDA624265EB4503317867F3000107
:1026800031700021716052EA030102D1F8BD0027C8
:10269000F3E7D6E901104C1C746020F81120120CED
:1026A00042EA03421B0CEEE72DE9F3418DED010AEE
:1026B000019D0378EA0F62F300030370C5F30F4333
:1026C00013F4FF4380460BD198F8003023F0010348
:1026D00088F800300023C8F8043002B0BDE8F0816B
:1026E000B3F5FF4FF0D0C5F3C754A4F17F06002E19
:1026F000EADB05D1012102B0BDE8F041FFF74CBF94
:10270000162EC5F31605D8BFC6F1170645F4000509
:10271000DCBFF5400026A4F16F07D8BF34464FEA6E
:102720002717C4BF963C09363946C4BF241106F0AA
:102730000F06FFF7D7FEC8F804702CB10021D8F8B7
:102740000800620043F050FE4EB1D8F8083005FA98
:1027500006F2C6F1100623F81420F5400134A74212
:10276000BBD0D8F8083023F814502D0CF6E72DE92B
:10277000F8430D46044698468F18C2F35B02511C7D
:10278000089EFFF7AFFEAC46002223781FFA86FEB4
:1027900068F300032370BC456046626002D3401BAF
:1027A000BDE8F88301780CF1010CA1F13003092B8D
:1027B00005D9A1F14103192B12D8A1F13703B34276
:1027C000EDD2A06890468146B8F1000F0FD100EB22
:1027D000420113B120F812300231091A4A10DAE727
:1027E000A1F16103192BDAD8A1F15703E7E7B9F892
:1027F000001008F1FF380EFB013329F8023B1B0CD7
:10280000E2E7F8B5044615461E46C1B14FF0FF3762
:10281000531E1E44E9000F3109092046FFF762FEEE
:1028200000212378616023F0010323700B4645B932
:10283000A06800EB4101FFF7A3FD6060F8BD012730
:10284000E8E700220F2B0ADC3078013D00FA03F0A4
:1028500042EA000292B203F108033E44F2D1A068BA
:10286000013100EB41006160103B20F8022CDEE7F3
:1028700038B505780B7805F0010203F00103044632
:10288000981A08D1D1E90132D4E90110FFF75EFEB0
:10289000EB0748BF404238BD884210B5044601D01E
:1028A000FFF7A8FE237823F00103237010BD8842B0
:1028B00010B5044601D0FFF79DFE63683BB1237855
:1028C000C3F3000282F0010262F30003237010BD23
:1028D00088421FB5044601D0FFF78CFE626862B9DA
:1028E00001212046FFF7FEFD0123A26813806360EB
:1028F000237843F00103237010E02378D9070FD524
:1029000023F00103237001230093A168ADF80E307A
:1029100008460DF10E03FFF78BFD606004B010BD9B
:102920002046511CFFF7DEFD01230093ADF80E3069
:10293000D4E901210DF10E030846FFF750FD606058
:10294000D6E74B682DE9F04705460E46144603B11D
:102950002AB931462846BDE8F047FFF74BBE02F1E1
:102960000F014FEA111803EB1111FFF7BBFDD6E978
:10297000012308EB0207A96807F1004014F00F04D7
:1029800000F1FF3008BF10244FEA400901EB40007E
:10299000864611464FF0000C03EB4203C4F11004CD
:1029A00009BB6FF001035A432CFA04FC8318C8F1E9
:1029B000010820F802C003EB48034FEA480218461A
:1029C000524243F011FD034609F102094B4417B18D
:1029D00033F8022D9AB16F6032782B7862F30003DE
:1029E0002B70BDE8F08733F802AD01394AEA0C0CD0
:1029F0002CFA04FA2EF802A94FEA0C4CD0E7013F5A
:102A0000E5E72DE9FF410D4649680646144601B148
:102A100032B92946304604B0BDE8F041FFF7EABDBF
:102A2000FFF760FDB768D5F80880234641466A681D
:102A30003846FFF7B1FC706029783378024661F3BD
:102A400000033370DB070AD5002369682009ADF85D
:102A50000E30994201D0834204D181420AD804B099
:102A6000BDE8F08138F813509DB101238142ADF8E3
:102A70000E3012D9012304F00F0438F8101003FAB5
:102A800004F4013C214206D1BDF80E30002BE6D003
:102A900003E00133DDE7ADF80E30012312B93B80CE
:102AA0007360DCE70093394638460DF10E03FFF7FB
:102AB00096FC7060D3E72DE9F3410D465768D1F8D5
:102AC00004803B46144606469268A8684146FFF7D4
:102AD0003DFD01301EBF23462C461D4623782A7833
:102AE00018BF47465340DB0719D43046791CFFF71F
:102AF000F9FC6B680093AB68B068D4E90121FFF77B
:102B00006EFC70602378327800280CBF002303F03D
:102B1000010363F30002327002B0BDE8F081394670
:102B20003046FFF7DFFC6B680093AB68B068D4E910
:102B30000121FFF77DFCE4E72DE9F3410F464E68E4
:102B4000D2F8048014464346314692680546B86878
:102B5000FFF7FCFC01301EBF23463C461F4623788E
:102B60003A7818BFB04683EA020314BF0026012654
:102B7000DB0719D5284608F10101FFF7B3FC7B6894
:102B80000093BB68A868D4E90121FFF728FC6860BE
:102B900018B1207800F0010070402B7860F300033A
:102BA0002B7002B0BDE8F08141462846FFF79AFC41
:102BB0007B680093BB68A868D4E90121FFF738FC63
:102BC000E5E72DE9F04F0C464B68516815468B42FE
:102BD00021BF1946254613461C462B780646DB07BF
:102BE00085B022D4237813F001071ED1FFF77AFCB9
:102BF000D4E9011C3B46B068AD6899420CD100EBAA
:102C00004101FFF7BDFB00237060327863F30002DF
:102C1000327005B0BDE8F08F35F813203CF8134052
:102C2000224020F813200133E7E730460131FFF757
:102C300059FC2F782378D5F804C087EA0301C943EB
:102C4000B06801F0010E41F3000189B207F00109FB
:102C500047F3000702918346B9B267460191A9681C
:102C600003F0010AA1F10208616843F300039BB27B
:102C7000A1EB0C01A268009303918FB900EB4C010A
:102C8000BEF1000F03D00123023120F81C30FFF702
:102C900077FB706022782B78C2F300021340B4E710
:102CA00038F8021F019B013F5940039B8944D91901
:102CB0008F4225BF32F8021B009B009959408A447D
:102CC000029B09EA0A0159401EFA81F12BF8021B06
:102CD0004FEA1A4A4FEA19494FEA114ECDE72DE95A
:102CE000F84F0D464B68516814468B4221BF194678
:102CF0002C4613461D4623780646DB0731D42B7835
:102D000013F001072DD1FFF7EDFBD5E9012E3B466E
:102D1000A0686468D6F808C0A41A9A4213D1214664
:102D20000CEB420300EB4202ACEB0000A1B903EB59
:102D30004403A3EB0C0358103378706061F3000375
:102D40003370BDE8F88F30F813103EF81350294364
:102D50002CF813100133E0E71588013915520232BF
:102D6000E4E730460131FFF7BDFBD5E901E2277802
:102D70006168B0682B7807F0010847F300058346C7
:102D80000F464FF0010AA46803F0010943F3000362
:102D9000ADB29BB2A4F1020CAEEB010E2FB900EB69
:102DA0004101FFF7EDFA0121C6E73CF8024F013F70
:102DB0006C40A0440EEB0704A74232BF1C4632F819
:102DC000024B5C40A14448EA0904E4431AFA84F443
:102DD0002BF8024B4FEA19494FEA18484FEA144AB8
:102DE000DCE74B68F0B50D46516814468B4221BFB5
:102DF000194613462C461D4627782B7806465F4019
:102E000017F0010785B036D1FFF76CFBD4E901213B
:102E1000D5E901532478B06814F0010424D1521B81
:102E2000A54212D1144601EB450300EB4505411ABA
:102E3000ACB905EB4201FFF7A3FA002733787060C5
:102E400067F30003337005B0F0BD31F8147033F848
:102E500014C087EA0C0720F814700134E0E71F88DB
:102E6000013C5F520233E3E7CDE90277CDE9005739
:102E7000FFF704FBE1E70131FFF734FB2B78012773
:102E8000DB4303F00103039323780197DB4303F053
:102E9000010302936B680093AB68B068D4E9012129
:102EA000FFF7ECFACAE72DE9F04F4B6804460E46EF
:102EB000154685B00BB1536843B9237823F001035D
:102EC00023700023636005B0BDE8F08F81422DD1EF
:102ED000FFF71DFBA542064607462ED06B687168BA
:102EE00020461944FFF7FEFA22680021C2F39D0232
:102EF0005200A06843F078FA0022D4F808E01146A6
:102F0000F446B368D6F804900193AB680EEB490819
:102F100002936B680393039B934233D00023DDF845
:102F200004B0ACF10200CDF800901AE0824206D164
:102F3000FFF7EDFA05460746D0E70546CEE700273E
:102F4000CCE730F802AF53441946029B3BF802AB82
:102F500033F8123003FB0A130099038001391B0C6C
:102F6000009100990029ECD14146881C13B101461B
:102F7000A8F80030A1EB0E01804649100CF1020CBC
:102F80000132C8E7384661602A78337853402278A6
:102F900063F30002227005B0BDE8F04FFFF7F0BA0E
:102FA0004B6870B50546144613B11378DA0706D599
:102FB0002B7823F001032B7000236B6070BD6368D6
:102FC00023B9BDE870400121FFF7E6BA0846FFF7D4
:102FD0009EFA06462046FFF79AFA01210446284643
:102FE000FFF7DAFA636883B1A3681B88DB0704D5AF
:102FF000324629462846FFF756FFD4E9012101232E
:103000000846FFF7C9F9606038B93046FFF7B8FAEB
:103010002046BDE87040FFF7B3BA3246314630462D
:10302000FFF741FFDEE72DE9F04F93460546002606
:103030000C4651688FB001310393FFF753FADBF868
:103040000420002101325200A86843F0CDF92B780A
:103050006E6023F001032B70DBF804102046013171
:10306000FFF740FA59462046FFF7C4FA039BD4F80D
:103070000890D3E90137D4F804800293AB683A464C
:10308000049341464846029BFFF760FA002833D17B
:103090000123049A606013806B6023786268002AC1
:1030A0000CBF002103F0010161F3000303992370B9
:1030B0009BF8003009784B40DB0740F1FD806B68DE
:1030C0002978003B18BF012363F300012970002A0F
:1030D00000F0F2800BA84FF0FF31FFF7A9FA294664
:1030E00028460BAAFFF7E7FC21462046039A0FB0BB
:1030F000BDE8F04FFFF7DFBC013001D16E60CCE7D7
:10310000029B03F100423346013A37F812104FEAAE
:10311000420A0E0403F101004ED54FF0000CCE46DA
:103120009BB209EB480108F10100C3F110060191BF
:1031300029F818C00231606005968E4540D337F8F3
:1031400012209A400592029A012A09D907EB0A0235
:1031500032F8022CC3F11001CA40059911430591C0
:10316000029A801A6860049A00F10040013802EB6C
:10317000400207920AF102020992BA1E0892D4F89C
:1031800004A0029A524529D300220AF1004A0AF10A
:10319000FF3A09EB4A0AC3F11000D14573D96FF029
:1031A00000416B682BB104985A1830F81220002A9D
:1031B00073D06FF0004175E04900034689B2A8E77B
:1031C000BEF8008008FA03F64CEA060C059E2EF8BD
:1031D00002CB28FA06F81FFA88FCAEE7019A01989C
:1031E000118832F8022C42EA01420599B2FBF1F251
:1031F0000999411A00200691089986460E46069FB5
:103200000199B9420DD809880844A8BB079921F84B
:103210000229019A0791023A01920AF1FF32626093
:10322000ADE736F8021FB7F80080994041EA1E4E1C
:103230001FFA8EF1514318FA80F81FFA81FC090C2D
:10324000A8EB0C0CC1EB204127F802CB01EB2C4082
:10325000D6E738F8021F994041EA1E4EBCF800102C
:10326000394411FA8EF12CF8021B0F0C01996145BB
:10327000EFD83844013AC8E70027DDF82080BE4681
:10328000DDF818C0F2E7BAF8001041FA03F632434D
:1032900081402AF802298AB27FE7013B6B6080E710
:1032A000013B63606368002B3FF4F7AE5A1839F8AE
:1032B0001220002AF4D0F0E60FB0BDE8F08FF0B590
:1032C0001F464B6804460D46164685B04BB1137831
:1032D000DA0706D47B68012B0BD1BB681B88012B56
:1032E00007D1237823F0010323700023636005B026
:1032F000F0BD01212046FFF74FF97368002BF6D08F
:103300002846FFF704F905463046FFF700F9002389
:103310000646CDE9013303937368B3B1B3681B88E4
:10332000DB070AD52A4621462046FFF7BCFD3B466F
:103330002246214601A8FFF776FED6E901210123A6
:103340000846FFF729F8706058B901A8FFF74AF955
:103350002846FFF715F9304605B0BDE8F040FFF705
:103360000FB92A4629462846FFF79DFD3B462A46C7
:10337000294601A8FFF757FECEE7D0E90121034611
:10338000002010B501EB4202914204D31B78DB0709
:1033900048BF404210BD32F8024D44EA0040F3E716
:1033A000002330B5D0E9012404EB4202944206D355
:1033B00002780120D20748BF5B420B6030BDB3F5F5
:1033C000004F04D232F8025D45EA0343EEE70020E5
:1033D000F4E72DE9F84FDDF828E0904604461A4658
:1033E0000D46C1B10EEB0300D4E90193A3F1020A2B
:1033F00000234FF0010B1F461E46217841F30001C8
:10340000C9B2B9F1000F08D1B2BBB8F1000F2DD18C
:103410000120BDE8F88F7046E6E73AF802CF103693
:103420004CEA0747072E02DC09F1FF39E9E794F877
:1034300000C0BBB21CF0010F1FBF6FEA030C5BFAA8
:103440008CFC1FFA8CF3CCF3072B5FFA83FC22B9B8
:103450008C4517D1083E3F0AE4E725B100F801CCBE
:103460000138013AF6E700F801CBFAE74B4083F068
:103470008003C3F3C010CCE7002D18BF704642F0A4
:10348000B3FFC5E71046C4E79FED0D0AD0E901324E
:103490009FED0C7A02EB43039A4205D30378DB07D6
:1034A00048BFB1EE400A704733F8021D07EE901A8C
:1034B000F8EEE77AE0EE077AB0EE670AECE700BFD5
:1034C00000000000000080470A292DE9F74F15464B
:1034D00014BF042203224468804689469DF830A028
:1034E0000D9E0092A4B98DB13246013D15F8011F21
:1034F000134641B930221A70002203F8012F981B9D
:1035000003B0BDE8F08F02F8011BEFE73346F1E7A7
:10351000640020460193FDF773F922460746D8F868
:10352000081042F01DFFB3463046019B07EB040C28
:103530003A3B0021ACF10204A742A6461DD95C46E5
:103540003031392988BFC91804F8011B39468C4528
:103550008E461DD83846FDF77BF965BB98F80030DC
:10356000DB0744BF2D2304F8013B3346621E9A4219
:1035700033D80023A01B2370C2E7BEF800E04EEA58
:10358000014EBEFBF9F124F8021909FB11E1D3E762
:10359000BEF800200231002AD9D0BAF1000F08D0BD
:1035A000009A211A914204D10BF1020420468BF8B3
:1035B00001A0A346BDE7284642F054FF29185A4609
:1035C0000B46AB4204D88D4288BF00200444C5E7B7
:1035D00013F8017D02F8017FF3E71978107803F8FA
:1035E000010B02F80119C2E7D0E9023293423DBF54
:1035F0005A1C826018784FF0FF307047036810B58E
:10360000013B0333044602D84068FDF721F9204608
:10361000BDE81040FDF71CB9F8B5054610200C4672
:103620001F461646FDF7ECF8054BC0E900748460B0
:103630003444C4606B60034B2860AB60F8BD00BFCE
:10364000E9350008FD3500080269F8B50A2A044684
:103650001BD1836901338361012300260A27E361BB
:10366000237D2361637D2375256EB5B16B1CA26D2F
:103670002366555D626D934201D366652666237DA0
:103680000D2B14D0BDB16575F8BDC369092A04BFFF
:10369000073323F007030133DFE7D4E90103984739
:1036A000431CECD0012838BF01200546E7E70A2D6E
:1036B0002775D9D0E6E7237D002BE4D00A2B18BF6D
:1036C0000A25E0E701690246272901D0222912D103
:1036D000012024E0137D272BFAD0222BF8D0722969
:1036E00014D1662B16D1507D2728F1D0A0F12203EA
:1036F000584258417047A1F16200132804D8084B82
:10370000034113F00100E5D000207047662904D181
:10371000722B00E0622B02D1E5E76229F8D07047F6
:10372000EEFFF6FF38B504460D462069D0B10A28F1
:1037300006D10DB1636AB3B12046FFF785FFF4E708
:10374000FEF794FD0028F7D12369232B08D12046EA
:10375000FFF77AFF2369002BE7D00A2BF7D1E4E7C4
:103760005C2B02D00025284638BD237D0A2BF9D1D9
:103770002046FFF769FFDFE700232DE9F04F0446FD
:1037800085B001214364FFF7CDFFA369276A636316
:10379000E369002FA36307DA0723013784F83C307D
:1037A000276205B0BDE8F08F04D00623013F84F8FE
:1037B0003C30F5E7002835D039462046FFF7B2FF08
:1037C000052384F83C30D4E90B3003F10042E5696D
:1037D000013A30F81220013D9542E2D009D8013B70
:1037E00030F81320954218D3DBD0022384F83C3004
:1037F000D7E7A16A8B4207D308314900FDF71BF8D0
:10380000A36A20630833A362E36A5A1CE26220F8C9
:103810001350236A01332362C3E7226AE362013A49
:103820002262DCE7256915B984F83C50B9E72046E7
:10383000FFF748FF0646002800F00D8284F83C7030
:103840002369722B6BD008D8622B0CD0662B70D0FA
:10385000B9460025A8460B230DE0753BD3F10009BE
:1038600049EB0309F5E7237D0025722B69D0A846B3
:103870004FF001090C2394F83C20002A6AD184F807
:103880003C30B9F1000F08D02046FFF7DDFEB9F15A
:10389000020F02D12046FFF7D7FE23692046222BD4
:1038A0000CBF222327230193FFF7CEFE2369019A41
:1038B000934240F08680237D934240F082802046F0
:1038C000FFF7C2FE2046FFF7BFFE4FF0030935B1F8
:1038D000A36E23B9A54904F16400FEF77CF84FF00C
:1038E000000B04F1400302932169002900F0AA8132
:1038F000B9F1010F02D10A2900F0A481CB4563D3AD
:10390000594604F14000FEF78BF801212046FFF7ED
:1039100009FF2046FFF7D6FE002891D11CE0237D49
:10392000622B0DD0662B10D00025B0464FF0010958
:1039300091E7237D3546722B08D04FF00008F5E75C
:103940000025B0464FF0020994E73546B0464FF0E7
:10395000020980E79A4294D0A36E002B3FF421AF76
:10396000292104F16400FDF7F3FF236E04F15006F2
:10397000002B40F06D8103213046FDF7CFFF236916
:103980000370237D4370637D8370D4E91A57216EE1
:103990002A463046FEF72CF82A46394642F0E0FC2B
:1039A0000023A366236EA26D581C2066D15C2161A2
:1039B000991C2166105C033320752366535C637584
:1039C000EFE64FF0010982E7019B8B4209D11946CE
:1039D00002980BF1010BFDF7C2FF2046FFF734FE02
:1039E00082E7002D61D15C2940F0298120460391B6
:1039F000FFF72AFED4F810A00399B8F1000F6DD09C
:103A00000298FDF7ACFFD346D4E004F1640B282103
:103A10005846FDF79DFF0022D4F868A0216979B1CE
:103A20007ABB3A290CD07D290AD0212929D1207DC1
:103A3000723801282AD8607D3A2801D07D2825D106
:103A4000D4E91A21881810F8010C3D2809D1A2EBFD
:103A50000A02514404F14000FDF7EAFEA26E013A69
:103A6000A266524508BF042358464FF0290108BFFB
:103A700084F83C30FDF76CFF2C215846FDF768FFB9
:103A800024E021F020005B280AD101325846C9B257
:103A90000392FDF75DFF2046FFF7D6FD039ABDE7D1
:103AA0005D2808BF02F1FF32F0E77B299BD1204659
:103AB0000391FFF7C9FD23697B2BA6D104F14000D8
:103AC0000399FDF745FF2046FFF7BEFD7B2104F17A
:103AD0004000FDF73DFF4FF0000B05E7BAF1780F0E
:103AE00009D8BAF15B0F0AD8BAF1220F54D029D8FD
:103AF000BAF10A0F23D05C2104F1400081E7AAF15A
:103B00005C021C2A74D8DFE802F047737373738B6E
:103B10002A7373733B737373737373733573737334
:103B20000F732D3E38735D004FF00D0B94F83C3051
:103B30000B2B78D1594604F14000FDF710FF4FF0F0
:103B4000000B4AE7BAF1550F1DD0D4D8BAF1270FB0
:103B500022D0BAF14E0F4BD105480AF039FE4FF092
:103B6000080BE3E74FF0090BE0E700BFCD9605082F
:103B7000D69605084FF00A0BD8E74FF00B0BD5E7A8
:103B80004FF00C0BD2E794F83C200C2A06D15C21B4
:103B900004F14000FDF7E3FED346C7E7BAF1750F25
:103BA00014BF4FF0080A4FF0040A4FF0000BBAF1AF
:103BB000010A0AD2BBF5881FB8D34FF0010384F87D
:103BC0003C30BCE74FF0020AEFE72046FFF73CFD30
:103BD000226910460392FEF767FB002800F04F8130
:103BE000039A4FEA0B1B1046FEF79EFB8344DEE769
:103BF000AAF1300BBBF1070F3FF67DAF4FF0030A80
:103C000006E02046FFF720FD2269303A02EBCB0B9D
:103C1000227D303A072ACDD8BAF1010AF1D1C9E79D
:103C20004FF0070B82E7BBF1FF0FC6D80C2BC4D1B6
:103C30005FFA8BF104F14000FDF78AFE7FE70298FE
:103C4000C9B2F9E7CB453CBF032384F83C3057E6C3
:103C5000033B236699E62846FEF712FB2169D8B993
:103C60005F2919D07F2917D80846FEF713FB0028D3
:103C700055D123692E2B4DD00026834D2F781FB1AF
:103C80002369BB4240F0A4802046FFF7DDFC002FF3
:103C900040F0A6800123A9E5082304F1400584F83B
:103CA0003C30C9B22846FDF753FE2046FFF7CCFC56
:103CB0002069D8B92846FDF73CFE00250646734F1B
:103CC000304657F8041B42F0DBFB00281CD10E35B0
:103CD000EDB2112D84F83C507FF463AD6C4BD3F8FA
:103CE0009832002B14BF0E2310237FE5FEF7C8FA8D
:103CF00040B920695F2805D07F2803D8FEF7CAFAAB
:103D00000028D7D0217CCDE7FFF64BAD0135242D1F
:103D1000D6D146E5207DFEF7BDFA0028ACD021695A
:103D20002E292AD10A2384F83C30002504F14006CC
:103D30003046FDF714FE2046FFF786FC0A2720696F
:103D400000283FF42EAD55BB20F02003452B26D193
:103D50006521304684F83C70FDF701FE2046FFF7F0
:103D600073FC21692B2901D02D29E8D13046FDF7BC
:103D7000F6FD2046FFF768FCE1E70923302984F8C7
:103D80003C30D2D1237D43F02003623BDBB2162BC3
:103D9000CBD8404DDD4015F00105C7D1C5E7FEF792
:103DA0006FFA28B121692E290DD184F83C70DDE726
:103DB0002069FEF76FFA0028F4D123692E2BF1D089
:103DC0005F2BD6D0EDE421F020034A2BCED1ECE7D7
:103DD000652F01D0632F00D10135013601354DE744
:103DE000212F08D123693D2B7FF454AF2046FFF7E4
:103DF0002BFC3923FAE42E2F0FD123692E2B02D16D
:103E0000237D2E2B01D05C23F0E42046FFF71CFC21
:103E10002046FFF719FC0D23E8E43346033515F877
:103E2000027C632F18D0652F16D01B4AD35C84F810
:103E30003C30543BDBB2052B3FF6B3AC012202FA17
:103E400003F313F02A0F17D113F0150F3FF4A9ACA9
:103E5000636A13446362A4E415F8012C21690136F6
:103E6000914207D12046FFF7EFFB3346652FDCD0A8
:103E70000235D4E7632FFAE7636A013BEAE70123DF
:103E8000834684F83C3051E688960508B80A06084F
:103E90005405002001204000480B06087FB5064667
:103EA00001AD742085E80E00FCF7AAFC034643F838
:103EB000046B044695E8070083E8070001236FF0D0
:103EC00001020025C4E906320A221420C4E90A23AB
:103ED000C4E90855FCF794FC2021206304F140005C
:103EE000FDF7B8FC294604F15000FDF7B3FC294664
:103EF00004F164002566FDF7ADFC236B20461D80B0
:103F00002561A582FFF7A0FB2046FFF79DFB204619
:103F1000FFF79AFB2046FFF72FFCA36B012B06D07F
:103F200094F83C30052B1CBF062384F83C30204617
:103F300004B070BD30B5054685B001AC2046FFF732
:103F40006BFB94E80E002846FFF7A8FF05B030BDD4
:103F500030B5044685B001AD0146284622F04AFB43
:103F600095E80E002046FFF799FF05B030BD10B56B
:103F70000446B0B1C3684068984704F14000FDF7BB
:103F800093FC04F15000FDF78FFC04F16400FDF791
:103F90008BFC206BFCF75CFC2046BDE81040FCF776
:103FA00057BC10BDD0E90432013B036152F8230035
:103FB0007047036942695B1A013B52F8230070475E
:103FC000F8B5446A06460D46B4B1D4E900030B4483
:103FD000834222D90831002201442046FCF736FCF6
:103FE0000246B8B9616820460831FCF72FFC6368C7
:103FF0002360336A63603462802D2F4638BF802788
:1040000007F10800FCF7FCFB00230760436004464F
:10401000706202E023682B44236060680834054422
:1040200044F8045C2044F8BD38B50D460C21144614
:10403000FFF7C6FF4FF49D720560C0E9012438BD4B
:1040400038B5D0E903329A4204460D4608D31033FE
:1040500099004069FCF7EFFBE36860611033E360AF
:10406000D4E90432591C216142F8235038BDF8B517
:1040700004461D46D0E9000383420F46164608D386
:104080001030C100A068FCF7D6FB2368A060103395
:104090002360D4E90103421C626053F8301003EB43
:1040A000C00267F3170143F83010D6705560F8BDB1
:1040B00010B48469CAB20023616B5DF8044BFFF74A
:1040C000D6BF0000F0B593B0044668460E461746CA
:1040D0001D46FCF755FB10B1002013B0F0BD3A4669
:1040E000314620460AF0AEF90446FCF71FFBA30751
:1040F00003D12268024B9A42EED001202C60ECE7FB
:104100000C18060810F00102034604D040F0010329
:104110000B6001207047A8B110F0030013D11A7989
:104120003A2A11D19B6813F001000B60F1D19A0774
:104130000AD11868054B9842EBD0054BC31A584278
:104140005841704770471046704700BF002106086D
:10415000A01E060810F001021CD110F003030CD0C1
:1041600000F00F03062B15D00A2B11D100090D38D2
:1041700003288CBF00200120704770B102793A2AD1
:1041800008D02D2A08D18068B0FA80F04009704725
:10419000104670470120704718467047C20702D585
:1041A00040F001007047830710D0030900F00F00B2
:1041B000062803D1D80040F002007047A3F10E009A
:1041C000022809D8064B53F82000704730B1037914
:1041D0003A2B03D180687047024870470248704705
:1041E000740B060800280608342C060838B5054666
:1041F0000C46FFF7AFFF38B12846FFF7CFFF0BF0B3
:10420000E3FA031B5842584138BD2DE9F0410F46EF
:1042100005461446114689B9204612F0BDFF0146F5
:1042200000F10808A4B90A4628463946FFF7FCFE03
:1042300001462846FFF704FF012007E02846013920
:10424000FFF7B7FEFFF786FF0028E4D1BDE8F08155
:104250002846FFF7A7FE0646FFF7A0FF013C48F8F7
:104260002400002EDED0B307DCD1686A00F1080319
:104270009E42D7D3426813449E42D3D273681B0A2E
:104280000233A2EB83024260CCE70000F7B58669F7
:10429000054696F83C200F46A2F10803042B52D89D
:1042A000DFE803F003232B384C00D6E91110FDF7AB
:1042B00031F9902F04460ED1C100002241F00201D5
:1042C00005F128000AF02AFE28B14268D3071CD560
:1042D00042F0010002E0200140F0020001462846C1
:1042E00003B0BDE8F040FFF7ABBE0022D6E91110E5
:1042F000334608F00BFC0246E8E700960023D6E9B7
:104300001110012208F038FD02462846716BFFF7B4
:104310008BFEE3E7D6E911100A2906D8FDF7FAF873
:1043200030B1000140F00600D8E7FDF7A5F8F7E747
:10433000D6E91121064810F06DFFE5E7D6E9111026
:1043400010F0DAFFE0E7120142F00A00C6E700BF12
:10435000282B060810B5FFF7D5FE50B10B6813F0F7
:10436000010007D19A0704D11868034BC31A5842B9
:10437000584110BD0120FCE7002106080021FFF78D
:1043800035BF0121FFF732BF2DE9F04F2D2A04463A
:10439000884616461D4687B00BD10021FFF709FE5F
:1043A000C0B1830702D10379922B13D007B0BDE8C7
:1043B000F08F922A2ED10021FFF7FBFD014648B174
:1043C000870707D14768FBB2952B18D12046FFF726
:1043D000E9FD013DA6F12303DFB2092F00F2F880C9
:1043E000092B00F2DC80DFE813F0FA00FA00FA0093
:1043F0002B012B012B015201FA00DA009C01962BB4
:10440000E8D127F0FF07204647F09207FFF7CAFDE3
:104410004F60CBE7962A13D1D0E9012303EBC20307
:1044200013F8153C01352D2B40F0BA802A46FFF7D2
:10443000ECFE002800F0B4806368023B6360B5E7DF
:10444000A2F11E03012B6BD9202A00F09080052ACF
:10445000C0D10021FFF7ADFD0746002800F0A08085
:1044600010F0030A05D1436803F0FE03562B00F059
:10447000978001212046FFF79CFD00F00F03022BDF
:1044800040F08E80BAF1000F06D13B795B2B06D14C
:10449000FF68002F00F08480BB0740F081803B79EB
:1044A0002C2B7DD1BB6803F00F02022A78D11B09A7
:1044B000482B75D1FB68002B72D013F0030A6FD123
:1044C0001A79302A6CD1D3F808B04FEA101958463F
:1044D000FFF740FE002840F0FF80B8490190B8483F
:1044E0000DF0ACF80546A169019B3A6809680DF02A
:1044F00087F92846FCF75CF91E2E0AD1FFF741FF29
:1045000018BB3846FFF73AFF00B9CB460BF1FF392D
:104510000BE0FFF733FFC0B93846FFF732FFF3E790
:1045200005F1FF398DB1AB46AA460AF1FF3A514673
:104530002046FFF73EFD23696269A3EB0B030746A4
:1045400042F82300BAF1000FD6D10021894509D1E4
:10455000A5EB0905012D3FF429AF362E00F041816E
:10456000332E3CE12046FFF71DFD0131EEE700212F
:10457000FFF71FFD0746FFF701FF68B93846FFF751
:1045800000FF68B1EA212046FFF70CFD204607B086
:10459000BDE8F04FFFF754BD4FF48571F3E72B26CC
:1045A000A91C89002046FFF70BFD074646EA0523B4
:1045B000C0F80080436000F10801002D40F01A812E
:1045C000962E03D139462046FFF73AFD3946DDE7FE
:1045D000922E00F0FD80062E00F00381BDE7691EDB
:1045E0002046FFF7E6FC03A9FFF78CFD0028B7D0B3
:1045F000022F8EBF4FF02209A6F10D095FFA89F94B
:10460000AF1E002F09DA002D40F0CD80039AD307AA
:1046100040F1CE8042F00101B8E739462046FFF76D
:10462000C8FC04A9FFF76EFD002899D0DDE903124C
:10463000484603ABFFF746FD002891D0013FE0E775
:10464000691E2046FFF7B5FC03A9FFF75BFD0028B4
:1046500086D0AF1E002FD6DD791E2046FFF7A9FCBD
:1046600004A9FFF74FFD00283FF47AAF39462046F2
:10467000FFF79FFCDDE903120009243803ABC0B249
:10468000FFF720FD00283FF46BAF023FE2E7002177
:104690002046FFF78EFC03A9FFF734FD00283FF406
:1046A0005FAF01212046FFF784FCC0F307103328D9
:1046B00003990BD1C80707D48A077FF451AF0A6862
:1046C000404B9A427FF44CAF022001E03F38C0B229
:1046D00009F0EAF8039096E75846FFF75FFD4FEAC6
:1046E000C9010746012241F0020104F128000AF045
:1046F00015FC47604846FCF7D2FF037820465F2B45
:1047000008D1FFF74FFC2046FFF74CFCD04655463A
:1047100008265FE6FFF746FC59462046FFF790FC67
:104720003EE701212046FFF744FC00F00F03022B77
:1047300007467FF415AF00212046FFF73AFC00281A
:104740003FF40EAF10F003027FF40AAF0379322B6F
:104750007FF406AF3909C900D0F8089041F0020192
:1047600019480AF0DBFB00283FF4FAAE406804AABF
:104770004FEA191108F0DAFF049B002B3FF4F0AE6A
:10478000D9070AD49A077FF4EBAE1A680D498A421A
:1047900003D00E498A427FF4E3AE059A002A7FF4E3
:1047A000DFAE03932FE72046FFF7FCFB013D2AE72E
:1047B00029462046FFF738FC0146E7E669970508D9
:1047C0004C1B060800210608800B0608A01E0608E0
:1047D000D4E9012303EBC20313F8053C2D2B7FF42E
:1047E000DFAE2A4641462046FFF70FFD00287FF442
:1047F000DDADD5E62046FFF7D5FB013D41F82500AC
:10480000DBE600BF0346006830B550B184070AD12B
:104810004468E5B28D4206D100F10803200A136016
:1048200030BD0346FBE70120F9E700002DE9F04F1A
:10483000A94B97B0CDE907310D460290A74905A8CD
:1048400000240192FBF77AFF40234FF40070CDE97A
:104850000934FBF7D5FF20230B908020CDE90C34E1
:10486000FBF7CEFF2146CDE90E0513A8CDE9114493
:104870000AF01EFB019B002B48D0022B0CBF3F22ED
:1048800022460023696B09A8FFF7F1FB0023944F30
:104890000A9C002C00F064810B99013C01EBC402DE
:1048A00051F83410D678C1F3170A8E49632E11F8E7
:1048B00006B08D498D48895D526888BF41F480718A
:1048C00000EB41080BF0300110290A940BF00F099E
:1048D0001ED020294BD0002B00F01B81B9F1020F14
:1048E00040F00A81012A40D000211BF0010F02F1A3
:1048F000FF3306D0B8F802003840B0F5805F08BF3B
:104900005308012B40F0E580E1B1E2E03D22B8E739
:1049100002B1BBB108EB420825E0C34638F8023BC0
:1049200003EA0701B1F5805F0ED195F83C10C3F39F
:104930000B03994216D109A83146FFF7A7FC284678
:10494000FEF71AFF0023A3E7531C4B4504D232465F
:10495000514609A8FFF78BFBBBF8001009A8FFF729
:10496000A7FBEFE701329145D7D8012390E773B158
:1049700002F10043013B38F813303B40B3F5405F90
:1049800021D1002109A80392FFF75AFB039A08EBF3
:10499000420491452BD8019B83B1052E0ED10021F5
:1049A00009A8FFF706FB48B9012109A8FFF701FB99
:1049B000830744D000F00F00022845D1002408EB03
:1049C0004903A1465AE0012ACFD995F83C30062B7D
:1049D00040F0F480464947480CF030FE044600237E
:1049E0006A6B29680CF00CFF2046FBF7E1FE03948C
:1049F00034F8021B01EA0700B0F5805F16D195F884
:104A00003C00C9B288420ED1082805D1314609A818
:104A10000392FFF73BFC039A28460392FEF7ACFE95
:104A2000039A0132B5E7002A9FD0CEE7531C5146C6
:104A3000324609A8FFF71BFB039B19888EE7002865
:104A4000BCD003793A2BB9D109A8FFF7ABFA09A872
:104A5000FFF7A8FA00230822514609A8FFF794FCA3
:104A600070E733F8022D02EA0701B1F5805F10D13B
:104A7000D2B2082A02D1013409F101099845F0D1D6
:104A8000B9F1010F1CD11BF0400F19D0002631469F
:104A900010E0214609A80393FFF78BFA039B08B1A6
:104AA00009F101090134E9E7FFF77CFA002818BF92
:104AB00001460136A64209A8F6D1FFF7C1FA41E73F
:104AC0001BF0800F04D0002109A8FFF7B9FA0134C8
:104AD00023463246C0E700BF6F3F00082FD60008CC
:104AE00000F0FFFFF40F0608BC0B06086C0C06086C
:104AF00075970508281B0608012A3FF436AF12F007
:104B000001013FF4F2AEB9F1030F7FF45EAF012172
:104B1000EBE609EA020303F0010338F8134004EA64
:104B20000701B1F5805F13D195F83C10C4F30B0475
:104B3000A14202F1010409D11BB9314609A8FFF7CE
:104B4000A5FB2846FEF718FE2246E2E72246C5E608
:104B50005146531C09A83246FFF789FA2146FDE663
:104B600013A80AF0B9F9129850B1416822460831E9
:104B7000FBF76CFE129B5A681A60119A5A601193E7
:104B800095F83C30002B7FF420AF0D9B002B3FF4B9
:104B90001CAF0E9B0B981B681093FBF759FE0E98E9
:104BA000FBF756FE0120FBF7D1FDDDE91001029B6A
:104BB00083E80300184617B0BDE8F08F022B01D13F
:104BC000034908E7042B0CBF02490349034803E7E4
:104BD0007E970508A5970508B89705084C1B060899
:104BE00038B50446406808B9606038BD4568FBF7D1
:104BF0002FFE2846F7E70000F8B5054630200E46A0
:104C00001746FBF716FE072D04460570C66001D057
:104C1000012D0FD1B368C3F30F13A38208F088F9F5
:104C2000042320612783E3842020FBF7E9FDE06271
:104C30002046F8BD014B5B5DEFE700BFA4100608FE
:104C400010B50446C06AFBF703FE2046BDE81040DD
:104C5000FBF7FEBD30B500220446058D954201D814
:104C6000002030BDE36A03EBC20043688B42F8D0FA
:104C70000132F3E770B504460D461646FFF7EAFF2A
:104C8000C0B9E38C228D9A4208D30633D900E06A7A
:104C9000FBF7D1FDE38CE0620633E384238DE26A07
:104CA000591C218502EBC30002F8336000234560E4
:104CB0004370438070BD034618465B68002BFBD1F0
:104CC000FFF7C8BFF8B544680E462CB9F8BD042BF1
:104CD000FCD105230370F9E7254628466D68002DB1
:104CE000F4D077683946FFF7B5FF0028F5D0037890
:104CF000043B022BEAD806253570002239462046AF
:104D0000FFF7B8FF0378002BE1D105706468F4E782
:104D1000036A1B8B012B1EBFC3685B18C3607047FF
:104D200010B50446836A406A9B6F9847238B226ABA
:104D30000133918C9BB29942238338BF938410BD79
:104D400010B50446038B013B0383836A406AD3F8A2
:104D5000843098472046BDE810400121FFF7D8BFB6
:104D60002DE9F04F85B004460D46984603921BB1DD
:104D7000CB8A43F00803CB82039BEB83236ADA8A56
:104D800042F03002DA821B78002B46D1A36A294612
:104D9000D3F8B4604346B446039A606A05B0BDE8F0
:104DA000F04F6047DB6A03EBC60B13F83630053B68
:104DB000012B1DD84FF0000917E0EB6A03EBC90285
:104DC00013F83930062B0ED1DBF8041053689942E2
:104DD00009D1A36ABBF802201B69606A1F46002341
:104DE000B8470AF1010A09F101092B8D4B45E4DCB2
:104DF0000136236A1A8DB242D4DCBAF1000FC5D055
:104E0000A36ACDF80080D3F8B86052462946039BC8
:104E1000606AB04705B0BDE8F08F0026B246E8E70B
:104E200010B50446836A0021D3F88830406A984759
:104E3000A36A606A0F211B6B9847A36A606A01210D
:104E4000D3F8CC3098472046BDE810400321FFF747
:104E50005FBF38B50446836A00225B6C406A98479E
:104E6000A36A606AD3F8C05000231A461946A847BF
:104E70002046BDE83840FFF7D3BF836A8968002227
:104E80001B6D406A09091847836A8968DB6B406AB1
:104E9000184710B50446084611461A46FFF7ACFEFF
:104EA000236A436000238360E3690BB9E06110BDAE
:104EB0001A469B68002BFBD19060F8E72DE9F04F74
:104EC00087B005460C4600AF11B90121116013E00F
:104ED00011F0030619D10B79682B19D1CB681B0986
:104EE00013608C68002CF0D0012604F00F03022B15
:104EF0000DD12109002EE9D0AB6A0022DB6A686A75
:104F000098471C37BD46BDE8F08F0026EDE716B97F
:104F1000A3681B091360A04658F8043FC1464FEA36
:104F2000132A08EB8A030AF1FF3BBB6059F8040F10
:104F30000009FCF7A9FBBB6883449945F6D10BF146
:104F4000070323F00703ADEB030DE9460023C7F881
:104F50000CD058F8040F07F1140100093B60FCF76E
:104F6000AAFB7A69014648467A6041F0F9F93B6844
:104F70007A6801339A454A4405D091464FF02E0293
:104F800009F8012BE5E75946F868FCF7C3FAAB6A64
:104F900001460022DB6A686A9847002EB1D00834C7
:104FA000BB689C42ADD054F8041FAB6A00221B6D55
:104FB000686A09099847F3E731B1826801F0030391
:104FC000134304BF0B68836070472DE9F041074627
:104FD0001E4659B111F0030510D14B68D8B290426A
:104FE0000CD14FEA13280C1D454501DBBDE8F081CB
:104FF000384654F8041FB0470135F5E738463346C4
:10500000BDE8F04118470000F8B50E4611461A46B3
:105010000023044685780769837003610E4BFFF710
:10502000D4FF6368BBB9618A51B1228A42B9A36ACD
:10503000606AD3F8A0309847A36A606A1B6C9847EF
:1050400031462046238A628AFFF78AFE003D18BF58
:1050500001252761A570F8BDB958000870B54378DF
:105060000546012B0C4606D1036A0A461B8B02211A
:10507000FFF70FFF20612846A26821694C23BDE895
:105080007040FFF7C1BF70B5134642780546012A4C
:105090000C4604D10A460721FFF7FBFEA061A66972
:1050A000284646233146E268FFF7AEFFB08A70BD5E
:1050B0009D22024B8968FFF788BF00BFC55D0008CD
:1050C0006B22024B8968FFF780BF00BF6979000837
:1050D00038B543680D46044611464BB905480CF0F7
:1050E000ADFA294660602046BDE83840FFF764BF4E
:1050F00038BD00BF4C1B0608014AFFF7E9BF00BFDF
:10510000BC9705080B7970B5092B4FF6FF730CBFE0
:10511000858AC58A04469D4202D1064AFFF7D8FF18
:10512000218B628BA36A606A8A1A5B6F2946BDE88D
:1051300070401847C997050838B5054679B101F0A0
:105140000F03022B0DD10C09204609F02DFD00287C
:1051500006DA2246054906480CF006FB6860002086
:1051600038BD044AFFF7B4FFF9E700BFE29705082E
:10517000E01A0608E797050870B5144605460E467E
:10518000127883B132B1032A04D0104ABDE87040CE
:10519000FFF79EBF032626706168286AFFF78BFD24
:1051A00000B1067070BD62B9012323702146006A08
:1051B000FFF788FD2378012BF4D131462846044AB5
:1051C000E4E7062AEED0034AE0E700BFEE970508C1
:1051D000FB970508089805082DE9F3414378044634
:1051E000012B0D461AD10B79102B0CBF4FF0010883
:1051F0004FF0000808D0036A1B782BB9114A02B09F
:10520000BDE8F041FFF764BF6D2101AA05F1080078
:10521000FFF7F8FA00260746B74202D102B0BDE810
:10522000F081019B002253F82610206A0909FFF73C
:1052300021FD4346024629462046FFF79DFF0136E1
:10524000EAE700BF0F98050842780B46012A02D111
:10525000006A02F01BBE816A026A2031406A02F0D5
:1052600024BE42780B46012A02D1006AFFF702BD34
:10527000816A026A1031406A02F017BE70B50546B5
:105280000C4600292ED0CA0706D5836A49105B6BED
:10529000686ABDE8704018478B0717D004F00F0408
:1052A000022C4FEA11110AD0062C0CD0052919D076
:1052B000BDE87040836AC9B21B6B406A1847BDE8FD
:1052C0007040FFF7CEBF836A9B6BE1E7836A096892
:1052D000DB68406A98472279034B2146284653F8F9
:1052E0002230D6E770BD00BFAC1006082DE9F74F9D
:1052F00005460C4616461F462046FFF73FF840B1CC
:105300006EB93946AB6A9B6E686A03B0BDE8F04F70
:1053100018472046FFF735F820B1002EF1D103B031
:10532000BDE8F08F002C48D0A30746D163684FEA50
:10533000132BDBB21E2B18D1DEB1043404EB8B0B24
:105340005C45ECD03B463246284654F8041FFFF734
:10535000CDFFF5E7434628465AF8041F019209F1AC
:105360000109FFF7C3FF019A11E01F2B1FD1002E87
:10537000E3D04FF00009D5F80C8004F1040A08F1DD
:105380000103EB600BF1FF33009386F00102009BF9
:105390004B45DFDC0BF101013B4654F8211032464E
:1053A0002846FFF7A3FFAB6A41469B6AACE7202B78
:1053B00003D1A46886F001069EE721462846FFF740
:1053C0005DFF3A463146AB6A686ADB6E03B0BDE802
:1053D000F04F184738B5026A044612780B46072A80
:1053E00006D0022A04D0BDE83840144AFFF770BE48
:1053F0009D6885B9A36A0F211B6B606A9847A36AF1
:10540000606A0021D3F8CC3098472046BDE8384088
:105410000121FFF77DBCAB070BD12B79AF2B08D156
:105420002046A968FFF72AFF2046BDE83840FFF76D
:10543000F7BC29462046FFF721FFE0E72198050841
:1054400070B543780446012B1546CE6806D1036A31
:105450000A461B8B2946FFF71CFD7061002320467E
:105460001A467169FFF77CFC2046F168FFF706FFDA
:10547000062D05D1A36A0021D3F88830606A9847C9
:10548000A36A606AD3F8BC500023AC46BDE8704004
:105490001A460121604738B505460C46C968FFF732
:1054A000EDFE2846A168BDE83840FFF7E7BE0B795E
:1054B00070B5342B04460D4610D18968FFF7DEFE27
:1054C000ED68AD6885B9A36A0F211B6B606A9847C8
:1054D000A36A04220221D3F8A0301AE0836A0F21C4
:1054E0001B6B406A9847ECE7AB071FD12B799A2BCF
:1054F00013D1A36A0F211B6B606A9847A968002922
:10550000E6D02046FFF7BAFE04220321A36AD3F8AF
:10551000A030606ABDE8704018479B2B06D1A9688F
:105520002046FFF7ABFEEB689968E8E7294620467E
:10553000FFF7A4FECCE710B504468968FFF79EFE8E
:10554000A36A606A0021BDE81040DB6C18470000C8
:105550002DE9F7438D68044616465DB9002A75D0DB
:1055600002222946836AD3F8A030606A03B0BDE8FE
:10557000F043184715F0030740F08A802B79372B4A
:1055800013D132B1836A02220121D3F8A030406ADC
:10559000984720462946FFF771FEA36A606AD3F850
:1055A000A43003B0BDE8F04318479F2B70D1EB68DF
:1055B0001A79A12A5AD1A22101AA03F10800FFF702
:1055C00021F9A968804621B38B0722D10B79372BAB
:1055D0001FD136B1A36A411C0222D3F8A030606A01
:1055E00098472046A968FFF749FEA36A606AD3F886
:1055F000A43098474FF00109474510D1B9F1000F89
:1056000024D1A36A0322D3F8A030606A791C98479A
:105610001CE02046FFF732FE4FF00009ECE7019B4B
:1056200053F82710A9B18E0713D10E79A6F13700D0
:10563000464246412046FFF721FEB9F1000F11D046
:105640004EB9184A29462046FFF742FD03B0BDE88F
:10565000F0830026EEE7A36A606AD3F8A430984787
:105660000137C9E7002EFBD00F4AEBE7AB685BB10F
:105670009A0709D11B79372B06D10422294603B09A
:10568000BDE8F043FFF7DCBE052229462046F6E7D9
:1056900029462046FFF7F2FDA36A03220121D3F831
:1056A000A03062E72C9805083D9805080122FFF715
:1056B0004FBF70B50D460446C968FFF7DFFDA96806
:1056C000A36AC1F30711332918BF3F39606A08BFC5
:1056D0000221BDE87040D3F8983018BFC9B218470E
:1056E000F8B54F680C46896805460026FFF7C6FDE9
:1056F0003F0A0C340236B74204F1080400DCF8BD5E
:10570000284654F8041CFFF7B9FD54F8081CAB6A8E
:1057100009092439D3F89C30686AC9B29847E9E787
:105720002DE9F0410C464E6854F8081F0546012744
:10573000FFF7A4FDA6F10D085FFA88F8360AB74214
:1057400001DBBDE8F081284654F8041FFFF796FD01
:10575000AB6A4146D3F89C30686A98470137EEE758
:105760002DE9F04104464E680D46360A8968FFF778
:1057700085FD032E98BF4FF000084FF0010782BF50
:10578000D4F80C8008F10103E3607B1C9E4222DC0C
:10579000032E55D9E568606A6B1CE360A36A29464D
:1057A0009B6E9847A36A4146606A9B6A9847A36AC2
:1057B0000121606A9B689847A36A606A1B6E9847DC
:1057C000A36A606ADB6D9847A36A2946606A9B6A90
:1057D000BDE8F0411847204629690237FFF74EFD22
:1057E000B74207DAA36A606A5B6D9847A36A606A8A
:1057F0005B6E9847EB68A26A03F00F010A29D2F8A2
:105800009C20606A11D1C3F30713252B0EBF06211C
:10581000343BD9B29047B74205DAA36A4246002129
:105820001B6F606A98470835AFE71979852901D160
:105830003221EFE79B680BB90721EBE73321E9E75A
:10584000BDE8F08110B504468968FFF717FDA36A2B
:10585000606A0321BDE81040D3F8983018472DE95D
:10586000F0470D460446002755F8046FD0F80C8029
:105870005FFA86F9A9F11E03D3F1000949EB030988
:1058800008F10103C360360AB74206DBA36A41464A
:10589000606A9B6ABDE8F0471847204655F8041F28
:1058A0000137FFF7EBFCB742F0DAA36A42464946FC
:1058B0001B6F606A9847E7E701F00F03022B70B592
:1058C000044612D00B79492B09D0483B082B18D835
:1058D000DFE803F00817071717171705070001235C
:1058E000A37070BD8E680D6975B9A378002BF8D1CF
:1058F000638A002BF5D02046BDE870401C4AFFF7B4
:10590000E7BBD1E90265EFE7A3783BB3238A013314
:105910009BB2012B23820ED1D4E90903618AD1B154
:105920000022D3F8A0309847A36A02220021D3F8BE
:10593000A030606A984729462046FFF79FFCA36A7B
:10594000606A9B6B31099847A36A606AD3F8A430F8
:10595000BDE8704018471B6C9847E5E7638A294605
:10596000013320466382BDE87040FFF787BC00BF6B
:10597000489805082DE9F04104460E46C568D1F85F
:105980000C80AB1C0022D8F80810C3602B46FFF730
:10599000ADFC2046B168FFF771FCA36A6F1C394665
:1059A000606A9B6E9847A36A2946606A9B6A98471B
:1059B000A36A606A9B684FF0FF3198472046D8F889
:1059C0000C10FFF75BFCA36A3946606A9B6ABDE86E
:1059D000F04118472DE9F047C668D0F814A0B31C71
:1059E000C360038B06F10108B0F81A900446868262
:1059F000A0F81680438388680D46FEF7BFFCF8B90F
:105A0000E768A8687B1CE360FEF7BBFC20B9A36ACB
:105A100041469B6E606A9847A36A39469B6A606AF2
:105A200098472046E968FFF729FCA36A41469B6A2C
:105A3000606A98473B4601222046A968FFF756FC5A
:105A400020462969C4F814A0A4F81A90FFF716FCA0
:105A5000A36A3146606A9B6ABDE8F04718472DE9A2
:105A6000F347C6680446731CC36088680D46FEF79A
:105A700085FC0246E8B9E76820467B1CA968E3601C
:105A80003B46FFF733FC2046E968FFF7F7FBA868C1
:105A9000FEF777FCD8B92B690BB96B6923B1A36A00
:105AA00031469B6E606A9847A36A39469B6A606A72
:105AB0009847712101AA05F11000FEF7A3FE002707
:105AC00081464F450BD120466969FFF7D7FBA36A92
:105AD00031469B6A606A984702B0BDE8F087019B37
